{
    "abi": [
        {
            "type": "constructor",
            "inputs": [],
            "stateMutability": "nonpayable"
        },
        {
            "type": "function",
            "name": "campaigns",
            "inputs": [
                {
                    "name": "",
                    "type": "uint256",
                    "internalType": "uint256"
                }
            ],
            "outputs": [
                {
                    "name": "token",
                    "type": "address",
                    "internalType": "address"
                },
                {
                    "name": "merkleRoot",
                    "type": "bytes32",
                    "internalType": "bytes32"
                },
                {
                    "name": "totalAllocation",
                    "type": "uint256",
                    "internalType": "uint256"
                },
                {
                    "name": "totalFunded",
                    "type": "uint256",
                    "internalType": "uint256"
                },
                {
                    "name": "totalClaimed",
                    "type": "uint256",
                    "internalType": "uint256"
                },
                {
                    "name": "expiry",
                    "type": "uint256",
                    "internalType": "uint256"
                },
                {
                    "name": "active",
                    "type": "bool",
                    "internalType": "bool"
                }
            ],
            "stateMutability": "view"
        },
        {
            "type": "function",
            "name": "claim",
            "inputs": [
                {
                    "name": "campaignId",
                    "type": "uint256",
                    "internalType": "uint256"
                },
                {
                    "name": "index",
                    "type": "uint256",
                    "internalType": "uint256"
                },
                {
                    "name": "account",
                    "type": "address",
                    "internalType": "address"
                },
                {
                    "name": "amount",
                    "type": "uint256",
                    "internalType": "uint256"
                },
                {
                    "name": "merkleProof",
                    "type": "bytes32[]",
                    "internalType": "bytes32[]"
                }
            ],
            "outputs": [],
            "stateMutability": "nonpayable"
        },
        {
            "type": "function",
            "name": "createAndFundCampaign",
            "inputs": [
                {
                    "name": "token",
                    "type": "address",
                    "internalType": "address"
                },
                {
                    "name": "merkleRoot",
                    "type": "bytes32",
                    "internalType": "bytes32"
                },
                {
                    "name": "totalAllocation",
                    "type": "uint256",
                    "internalType": "uint256"
                },
                {
                    "name": "expiry",
                    "type": "uint256",
                    "internalType": "uint256"
                },
                {
                    "name": "fundingAmount",
                    "type": "uint256",
                    "internalType": "uint256"
                }
            ],
            "outputs": [
                {
                    "name": "",
                    "type": "uint256",
                    "internalType": "uint256"
                }
            ],
            "stateMutability": "nonpayable"
        },
        {
            "type": "function",
            "name": "createCampaign",
            "inputs": [
                {
                    "name": "token",
                    "type": "address",
                    "internalType": "address"
                },
                {
                    "name": "merkleRoot",
                    "type": "bytes32",
                    "internalType": "bytes32"
                },
                {
                    "name": "totalAllocation",
                    "type": "uint256",
                    "internalType": "uint256"
                },
                {
                    "name": "expiry",
                    "type": "uint256",
                    "internalType": "uint256"
                }
            ],
            "outputs": [
                {
                    "name": "",
                    "type": "uint256",
                    "internalType": "uint256"
                }
            ],
            "stateMutability": "nonpayable"
        },
        {
            "type": "function",
            "name": "emergencyRecoverERC20",
            "inputs": [
                {
                    "name": "tokenAddress",
                    "type": "address",
                    "internalType": "address"
                },
                {
                    "name": "tokenAmount",
                    "type": "uint256",
                    "internalType": "uint256"
                }
            ],
            "outputs": [],
            "stateMutability": "nonpayable"
        },
        {
            "type": "function",
            "name": "fundCampaign",
            "inputs": [
                {
                    "name": "campaignId",
                    "type": "uint256",
                    "internalType": "uint256"
                },
                {
                    "name": "amount",
                    "type": "uint256",
                    "internalType": "uint256"
                }
            ],
            "outputs": [],
            "stateMutability": "nonpayable"
        },
        {
            "type": "function",
            "name": "getAllCampaigns",
            "inputs": [],
            "outputs": [
                {
                    "name": "",
                    "type": "tuple[]",
                    "internalType": "struct ReferalRewardsDistributor.Campaign[]",
                    "components": [
                        {
                            "name": "token",
                            "type": "address",
                            "internalType": "address"
                        },
                        {
                            "name": "merkleRoot",
                            "type": "bytes32",
                            "internalType": "bytes32"
                        },
                        {
                            "name": "totalAllocation",
                            "type": "uint256",
                            "internalType": "uint256"
                        },
                        {
                            "name": "totalFunded",
                            "type": "uint256",
                            "internalType": "uint256"
                        },
                        {
                            "name": "totalClaimed",
                            "type": "uint256",
                            "internalType": "uint256"
                        },
                        {
                            "name": "expiry",
                            "type": "uint256",
                            "internalType": "uint256"
                        },
                        {
                            "name": "active",
                            "type": "bool",
                            "internalType": "bool"
                        }
                    ]
                }
            ],
            "stateMutability": "view"
        },
        {
            "type": "function",
            "name": "isClaimed",
            "inputs": [
                {
                    "name": "campaignId",
                    "type": "uint256",
                    "internalType": "uint256"
                },
                {
                    "name": "index",
                    "type": "uint256",
                    "internalType": "uint256"
                }
            ],
            "outputs": [
                {
                    "name": "",
                    "type": "bool",
                    "internalType": "bool"
                }
            ],
            "stateMutability": "view"
        },
        {
            "type": "function",
            "name": "nextCampaignId",
            "inputs": [],
            "outputs": [
                {
                    "name": "",
                    "type": "uint256",
                    "internalType": "uint256"
                }
            ],
            "stateMutability": "view"
        },
        {
            "type": "function",
            "name": "owner",
            "inputs": [],
            "outputs": [
                {
                    "name": "",
                    "type": "address",
                    "internalType": "address"
                }
            ],
            "stateMutability": "view"
        },
        {
            "type": "function",
            "name": "renounceOwnership",
            "inputs": [],
            "outputs": [],
            "stateMutability": "nonpayable"
        },
        {
            "type": "function",
            "name": "transferOwnership",
            "inputs": [
                {
                    "name": "newOwner",
                    "type": "address",
                    "internalType": "address"
                }
            ],
            "outputs": [],
            "stateMutability": "nonpayable"
        },
        {
            "type": "function",
            "name": "updateCampaignStatus",
            "inputs": [
                {
                    "name": "campaignId",
                    "type": "uint256",
                    "internalType": "uint256"
                },
                {
                    "name": "active",
                    "type": "bool",
                    "internalType": "bool"
                }
            ],
            "outputs": [],
            "stateMutability": "nonpayable"
        },
        {
            "type": "function",
            "name": "updateMerkleRoot",
            "inputs": [
                {
                    "name": "campaignId",
                    "type": "uint256",
                    "internalType": "uint256"
                },
                {
                    "name": "newRoot",
                    "type": "bytes32",
                    "internalType": "bytes32"
                }
            ],
            "outputs": [],
            "stateMutability": "nonpayable"
        },
        {
            "type": "function",
            "name": "withdrawUnclaimed",
            "inputs": [
                {
                    "name": "campaignId",
                    "type": "uint256",
                    "internalType": "uint256"
                },
                {
                    "name": "to",
                    "type": "address",
                    "internalType": "address"
                },
                {
                    "name": "amount",
                    "type": "uint256",
                    "internalType": "uint256"
                }
            ],
            "outputs": [],
            "stateMutability": "nonpayable"
        },
        {
            "type": "event",
            "name": "CampaignClosed",
            "inputs": [
                {
                    "name": "campaignId",
                    "type": "uint256",
                    "indexed": true,
                    "internalType": "uint256"
                }
            ],
            "anonymous": false
        },
        {
            "type": "event",
            "name": "CampaignCreated",
            "inputs": [
                {
                    "name": "campaignId",
                    "type": "uint256",
                    "indexed": true,
                    "internalType": "uint256"
                },
                {
                    "name": "token",
                    "type": "address",
                    "indexed": false,
                    "internalType": "address"
                },
                {
                    "name": "merkleRoot",
                    "type": "bytes32",
                    "indexed": false,
                    "internalType": "bytes32"
                },
                {
                    "name": "totalAllocation",
                    "type": "uint256",
                    "indexed": false,
                    "internalType": "uint256"
                },
                {
                    "name": "expiry",
                    "type": "uint256",
                    "indexed": false,
                    "internalType": "uint256"
                }
            ],
            "anonymous": false
        },
        {
            "type": "event",
            "name": "CampaignFunded",
            "inputs": [
                {
                    "name": "campaignId",
                    "type": "uint256",
                    "indexed": true,
                    "internalType": "uint256"
                },
                {
                    "name": "token",
                    "type": "address",
                    "indexed": true,
                    "internalType": "address"
                },
                {
                    "name": "amount",
                    "type": "uint256",
                    "indexed": false,
                    "internalType": "uint256"
                },
                {
                    "name": "totalFunded",
                    "type": "uint256",
                    "indexed": false,
                    "internalType": "uint256"
                }
            ],
            "anonymous": false
        },
        {
            "type": "event",
            "name": "Claimed",
            "inputs": [
                {
                    "name": "campaignId",
                    "type": "uint256",
                    "indexed": true,
                    "internalType": "uint256"
                },
                {
                    "name": "index",
                    "type": "uint256",
                    "indexed": true,
                    "internalType": "uint256"
                },
                {
                    "name": "account",
                    "type": "address",
                    "indexed": true,
                    "internalType": "address"
                },
                {
                    "name": "amount",
                    "type": "uint256",
                    "indexed": false,
                    "internalType": "uint256"
                }
            ],
            "anonymous": false
        },
        {
            "type": "event",
            "name": "OwnershipTransferred",
            "inputs": [
                {
                    "name": "previousOwner",
                    "type": "address",
                    "indexed": true,
                    "internalType": "address"
                },
                {
                    "name": "newOwner",
                    "type": "address",
                    "indexed": true,
                    "internalType": "address"
                }
            ],
            "anonymous": false
        },
        {
            "type": "event",
            "name": "UnclaimedWithdrawn",
            "inputs": [
                {
                    "name": "campaignId",
                    "type": "uint256",
                    "indexed": true,
                    "internalType": "uint256"
                },
                {
                    "name": "to",
                    "type": "address",
                    "indexed": true,
                    "internalType": "address"
                },
                {
                    "name": "amount",
                    "type": "uint256",
                    "indexed": false,
                    "internalType": "uint256"
                }
            ],
            "anonymous": false
        },
        {
            "type": "error",
            "name": "OwnableInvalidOwner",
            "inputs": [
                {
                    "name": "owner",
                    "type": "address",
                    "internalType": "address"
                }
            ]
        },
        {
            "type": "error",
            "name": "OwnableUnauthorizedAccount",
            "inputs": [
                {
                    "name": "account",
                    "type": "address",
                    "internalType": "address"
                }
            ]
        },
        {
            "type": "error",
            "name": "ReentrancyGuardReentrantCall",
            "inputs": []
        },
        {
            "type": "error",
            "name": "SafeERC20FailedOperation",
            "inputs": [
                {
                    "name": "token",
                    "type": "address",
                    "internalType": "address"
                }
            ]
        }
    ],
    "bytecode": {
        "object": "0x608060405234801561000f575f5ffd5b50335f73ffffffffffffffffffffffffffffffffffffffff168173ffffffffffffffffffffffffffffffffffffffff1603610081575f6040517f1e4fbdf700000000000000000000000000000000000000000000000000000000815260040161007891906101f4565b60405180910390fd5b610090816100c260201b60201c565b5060016100af6100a461018360201b60201c565b6101ac60201b60201c565b5f0181905550600160028190555061020d565b5f5f5f9054906101000a900473ffffffffffffffffffffffffffffffffffffffff169050815f5f6101000a81548173ffffffffffffffffffffffffffffffffffffffff021916908373ffffffffffffffffffffffffffffffffffffffff1602179055508173ffffffffffffffffffffffffffffffffffffffff168173ffffffffffffffffffffffffffffffffffffffff167f8be0079c531659141344cd1fd0a4f28419497f9722a3daafe3b4186f6b6457e060405160405180910390a35050565b5f7f9b779b17422d0df92223018b32b4d1fa46e071723d6817e2486d003becc55f005f1b905090565b5f819050919050565b5f73ffffffffffffffffffffffffffffffffffffffff82169050919050565b5f6101de826101b5565b9050919050565b6101ee816101d4565b82525050565b5f6020820190506102075f8301846101e5565b92915050565b6123508061021a5f395ff3fe608060405234801561000f575f5ffd5b50600436106100f3575f3560e01c806386cdf60411610095578063ac2214f611610064578063ac2214f61461024d578063f1e331151461027d578063f2fde38b14610299578063f364c90c146102b5576100f3565b806386cdf604146101d95780638da5cb5b146101f7578063918eab15146102155780639ee01a1314610231576100f3565b806330c56805116100d157806330c56805146101795780635d4df3bf14610195578063715018a6146101b15780637903a756146101bb576100f3565b80630125bb32146100f7578063141961bc14610113578063307185d414610149575b5f5ffd5b610111600480360381019061010c91906115d2565b6102e5565b005b61012d60048036038101906101289190611610565b610323565b604051610140979695949392919061168b565b60405180910390f35b610163600480360381019061015e9190611722565b61038c565b6040516101709190611799565b60405180910390f35b610193600480360381019061018e91906117dc565b6103bb565b005b6101af60048036038101906101aa919061187b565b610472565b005b6101b961074b565b005b6101c361075e565b6040516101d09190611799565b60405180910390f35b6101e1610764565b6040516101ee9190611a81565b60405180910390f35b6101ff6108de565b60405161020c9190611aa1565b60405180910390f35b61022f600480360381019061022a9190611aba565b610905565b005b61024b60048036038101906102469190611af8565b610abc565b005b61026760048036038101906102629190611b48565b610cb4565b6040516102749190611799565b60405180910390f35b61029760048036038101906102929190611bac565b610ec6565b005b6102b360048036038101906102ae9190611bea565b610f7c565b005b6102cf60048036038101906102ca9190611aba565b611000565b6040516102dc9190611c15565b60405180910390f35b6102ed61105c565b61031f6102f86108de565b828473ffffffffffffffffffffffffffffffffffffffff166110e39092919063ffffffff16565b5050565b6001602052805f5260405f205f91509050805f015f9054906101000a900473ffffffffffffffffffffffffffffffffffffffff1690806001015490806002015490806003015490806004015490806005015490806006015f9054906101000a900460ff16905087565b5f61039561105c565b5f6103a287878787610cb4565b90506103ae8184610905565b8091505095945050505050565b6103c361105c565b5f60015f8481526020019081526020015f2090505f5f1b81600101540361041f576040517f08c379a000000000000000000000000000000000000000000000000000000000815260040161041690611c88565b60405180910390fd5b81816006015f6101000a81548160ff0219169083151502179055508161046d57827f5e6eb33a418de5dbbc17f989f7ae362cdfbb1748c5d603137c767027a354edbc60405160405180910390a25b505050565b61047a611136565b5f60015f8881526020019081526020015f2090505f5f1b8160010154036104d6576040517f08c379a00000000000000000000000000000000000000000000000000000000081526004016104cd90611c88565b60405180910390fd5b806006015f9054906101000a900460ff16610526576040517f08c379a000000000000000000000000000000000000000000000000000000000815260040161051d90611cf0565b60405180910390fd5b6105308787611000565b15610570576040517f08c379a000000000000000000000000000000000000000000000000000000000815260040161056790611d58565b60405180910390fd5b5f84116105b2576040517f08c379a00000000000000000000000000000000000000000000000000000000081526004016105a990611dc0565b60405180910390fd5b5f8686866040516020016105c893929190611e43565b6040516020818303038152906040528051906020012090506106398260010154828686808060200260200160405190810160405280939291908181526020018383602002808284375f81840152601f19601f820116905080830192505050505050506111589092919063ffffffff16565b610678576040517f08c379a000000000000000000000000000000000000000000000000000000000815260040161066f90611ec9565b60405180910390fd5b610682888861116e565b84826004015f8282546106959190611f14565b925050819055506106e98686845f015f9054906101000a900473ffffffffffffffffffffffffffffffffffffffff1673ffffffffffffffffffffffffffffffffffffffff166110e39092919063ffffffff16565b8573ffffffffffffffffffffffffffffffffffffffff1687897fb94bf7f9302edf52a596286915a69b4b0685574cffdedd0712e3c62f2550f0ba886040516107319190611799565b60405180910390a450506107436111c7565b505050505050565b61075361105c565b61075c5f6111e1565b565b60025481565b60605f60016002546107769190611f47565b90505f8167ffffffffffffffff81111561079357610792611f7a565b5b6040519080825280602002602001820160405280156107cc57816020015b6107b96114ef565b8152602001906001900390816107b15790505b5090505f600190505b8281116108d55760015f8281526020019081526020015f206040518060e00160405290815f82015f9054906101000a900473ffffffffffffffffffffffffffffffffffffffff1673ffffffffffffffffffffffffffffffffffffffff1673ffffffffffffffffffffffffffffffffffffffff1681526020016001820154815260200160028201548152602001600382015481526020016004820154815260200160058201548152602001600682015f9054906101000a900460ff161515151581525050826001836108a69190611f47565b815181106108b7576108b6611fa7565b5b602002602001018190525080806108cd90611fd4565b9150506107d5565b50809250505090565b5f5f5f9054906101000a900473ffffffffffffffffffffffffffffffffffffffff16905090565b61090d61105c565b610915611136565b5f60015f8481526020019081526020015f2090505f5f1b816001015403610971576040517f08c379a000000000000000000000000000000000000000000000000000000000815260040161096890611c88565b60405180910390fd5b5f82116109b3576040517f08c379a00000000000000000000000000000000000000000000000000000000081526004016109aa90611dc0565b60405180910390fd5b610a02333084845f015f9054906101000a900473ffffffffffffffffffffffffffffffffffffffff1673ffffffffffffffffffffffffffffffffffffffff166112a2909392919063ffffffff16565b81816003015f828254610a159190611f14565b925050819055506001816006015f6101000a81548160ff021916908315150217905550805f015f9054906101000a900473ffffffffffffffffffffffffffffffffffffffff1673ffffffffffffffffffffffffffffffffffffffff16837f6637075408a9572ec77fa40797015b1d3661e89238834c902fc2894c1e38090c848460030154604051610aa792919061201b565b60405180910390a350610ab86111c7565b5050565b610ac461105c565b610acc611136565b5f60015f8581526020019081526020015f2090505f5f1b816001015403610b28576040517f08c379a0000000000000000000000000000000000000000000000000000000008152600401610b1f90611c88565b60405180910390fd5b806006015f9054906101000a900460ff1615610b95575f816005015414158015610b555750806005015442115b610b94576040517f08c379a0000000000000000000000000000000000000000000000000000000008152600401610b8b9061208c565b60405180910390fd5b5b5f81600401548260030154610baa9190611f47565b905082811015610bef576040517f08c379a0000000000000000000000000000000000000000000000000000000008152600401610be6906120f4565b60405180910390fd5b82826003015f828254610c029190611f47565b92505081905550610c568484845f015f9054906101000a900473ffffffffffffffffffffffffffffffffffffffff1673ffffffffffffffffffffffffffffffffffffffff166110e39092919063ffffffff16565b8373ffffffffffffffffffffffffffffffffffffffff16857fe714a003ff32e430172ffebb2eed392a83ea6cbb3f999674d48070451e45e98385604051610c9d9190611799565b60405180910390a35050610caf6111c7565b505050565b5f610cbd61105c565b5f73ffffffffffffffffffffffffffffffffffffffff168573ffffffffffffffffffffffffffffffffffffffff1603610d2b576040517f08c379a0000000000000000000000000000000000000000000000000000000008152600401610d229061215c565b60405180910390fd5b5f5f1b8403610d6f576040517f08c379a0000000000000000000000000000000000000000000000000000000008152600401610d66906121c4565b60405180910390fd5b5f60025f815480929190610d8290611fd4565b9190505590506040518060e001604052808773ffffffffffffffffffffffffffffffffffffffff1681526020018681526020018581526020015f81526020015f81526020018481526020015f151581525060015f8381526020019081526020015f205f820151815f015f6101000a81548173ffffffffffffffffffffffffffffffffffffffff021916908373ffffffffffffffffffffffffffffffffffffffff1602179055506020820151816001015560408201518160020155606082015181600301556080820151816004015560a0820151816005015560c0820151816006015f6101000a81548160ff021916908315150217905550905050807fd7351f306523882e9c83c66972660c3ff78232a32323439634dec41d5a7c57a487878787604051610eb294939291906121e2565b60405180910390a280915050949350505050565b610ece61105c565b5f60015f8481526020019081526020015f2090505f5f1b816001015403610f2a576040517f08c379a0000000000000000000000000000000000000000000000000000000008152600401610f2190611c88565b60405180910390fd5b5f5f1b8203610f6e576040517f08c379a0000000000000000000000000000000000000000000000000000000008152600401610f659061226f565b60405180910390fd5b818160010181905550505050565b610f8461105c565b5f73ffffffffffffffffffffffffffffffffffffffff168173ffffffffffffffffffffffffffffffffffffffff1603610ff4575f6040517f1e4fbdf7000000000000000000000000000000000000000000000000000000008152600401610feb9190611aa1565b60405180910390fd5b610ffd816111e1565b50565b5f5f6101008361101091906122ba565b90505f6101008461102191906122ea565b90505f60035f8781526020019081526020015f205f8481526020019081526020015f205490505f826001901b82161415935050505092915050565b6110646112f7565b73ffffffffffffffffffffffffffffffffffffffff166110826108de565b73ffffffffffffffffffffffffffffffffffffffff16146110e1576110a56112f7565b6040517f118cdaa70000000000000000000000000000000000000000000000000000000081526004016110d89190611aa1565b60405180910390fd5b565b6110f083838360016112fe565b61113157826040517f5274afe70000000000000000000000000000000000000000000000000000000081526004016111289190611aa1565b60405180910390fd5b505050565b61113e611360565b600261115061114b6113a1565b6113ca565b5f0181905550565b5f8261116485846113d3565b1490509392505050565b5f6101008261117d91906122ba565b90505f6101008361118e91906122ea565b9050806001901b60035f8681526020019081526020015f205f8481526020019081526020015f205f828254179250508190555050505050565b60016111d96111d46113a1565b6113ca565b5f0181905550565b5f5f5f9054906101000a900473ffffffffffffffffffffffffffffffffffffffff169050815f5f6101000a81548173ffffffffffffffffffffffffffffffffffffffff021916908373ffffffffffffffffffffffffffffffffffffffff1602179055508173ffffffffffffffffffffffffffffffffffffffff168173ffffffffffffffffffffffffffffffffffffffff167f8be0079c531659141344cd1fd0a4f28419497f9722a3daafe3b4186f6b6457e060405160405180910390a35050565b6112b0848484846001611424565b6112f157836040517f5274afe70000000000000000000000000000000000000000000000000000000081526004016112e89190611aa1565b60405180910390fd5b50505050565b5f33905090565b5f5f63a9059cbb60e01b9050604051815f525f1960601c86166004528460245260205f60445f5f8b5af1925060015f51148316611352578383151615611346573d5f823e3d81fd5b5f873b113d1516831692505b806040525050949350505050565b611368611495565b1561139f576040517f3ee5aeb500000000000000000000000000000000000000000000000000000000815260040160405180910390fd5b565b5f7f9b779b17422d0df92223018b32b4d1fa46e071723d6817e2486d003becc55f005f1b905090565b5f819050919050565b5f5f8290505f5f90505b84518110156114195761140a828683815181106113fd576113fc611fa7565b5b60200260200101516114b1565b915080806001019150506113dd565b508091505092915050565b5f5f6323b872dd60e01b9050604051815f525f1960601c87166004525f1960601c86166024528460445260205f60645f5f8c5af1925060015f51148316611482578383151615611476573d5f823e3d81fd5b5f883b113d1516831692505b806040525f606052505095945050505050565b5f60026114a86114a36113a1565b6113ca565b5f015414905090565b5f8183106114c8576114c382846114db565b6114d3565b6114d283836114db565b5b905092915050565b5f825f528160205260405f20905092915050565b6040518060e001604052805f73ffffffffffffffffffffffffffffffffffffffff1681526020015f81526020015f81526020015f81526020015f81526020015f81526020015f151581525090565b5f5ffd5b5f5ffd5b5f73ffffffffffffffffffffffffffffffffffffffff82169050919050565b5f61156e82611545565b9050919050565b61157e81611564565b8114611588575f5ffd5b50565b5f8135905061159981611575565b92915050565b5f819050919050565b6115b18161159f565b81146115bb575f5ffd5b50565b5f813590506115cc816115a8565b92915050565b5f5f604083850312156115e8576115e761153d565b5b5f6115f58582860161158b565b9250506020611606858286016115be565b9150509250929050565b5f602082840312156116255761162461153d565b5b5f611632848285016115be565b91505092915050565b61164481611564565b82525050565b5f819050919050565b61165c8161164a565b82525050565b61166b8161159f565b82525050565b5f8115159050919050565b61168581611671565b82525050565b5f60e08201905061169e5f83018a61163b565b6116ab6020830189611653565b6116b86040830188611662565b6116c56060830187611662565b6116d26080830186611662565b6116df60a0830185611662565b6116ec60c083018461167c565b98975050505050505050565b6117018161164a565b811461170b575f5ffd5b50565b5f8135905061171c816116f8565b92915050565b5f5f5f5f5f60a0868803121561173b5761173a61153d565b5b5f6117488882890161158b565b95505060206117598882890161170e565b945050604061176a888289016115be565b935050606061177b888289016115be565b925050608061178c888289016115be565b9150509295509295909350565b5f6020820190506117ac5f830184611662565b92915050565b6117bb81611671565b81146117c5575f5ffd5b50565b5f813590506117d6816117b2565b92915050565b5f5f604083850312156117f2576117f161153d565b5b5f6117ff858286016115be565b9250506020611810858286016117c8565b9150509250929050565b5f5ffd5b5f5ffd5b5f5ffd5b5f5f83601f84011261183b5761183a61181a565b5b8235905067ffffffffffffffff8111156118585761185761181e565b5b60208301915083602082028301111561187457611873611822565b5b9250929050565b5f5f5f5f5f5f60a087890312156118955761189461153d565b5b5f6118a289828a016115be565b96505060206118b389828a016115be565b95505060406118c489828a0161158b565b94505060606118d589828a016115be565b935050608087013567ffffffffffffffff8111156118f6576118f5611541565b5b61190289828a01611826565b92509250509295509295509295565b5f81519050919050565b5f82825260208201905092915050565b5f819050602082019050919050565b61194381611564565b82525050565b6119528161164a565b82525050565b6119618161159f565b82525050565b61197081611671565b82525050565b60e082015f82015161198a5f85018261193a565b50602082015161199d6020850182611949565b5060408201516119b06040850182611958565b5060608201516119c36060850182611958565b5060808201516119d66080850182611958565b5060a08201516119e960a0850182611958565b5060c08201516119fc60c0850182611967565b50505050565b5f611a0d8383611976565b60e08301905092915050565b5f602082019050919050565b5f611a2f82611911565b611a39818561191b565b9350611a448361192b565b805f5b83811015611a74578151611a5b8882611a02565b9750611a6683611a19565b925050600181019050611a47565b5085935050505092915050565b5f6020820190508181035f830152611a998184611a25565b905092915050565b5f602082019050611ab45f83018461163b565b92915050565b5f5f60408385031215611ad057611acf61153d565b5b5f611add858286016115be565b9250506020611aee858286016115be565b9150509250929050565b5f5f5f60608486031215611b0f57611b0e61153d565b5b5f611b1c868287016115be565b9350506020611b2d8682870161158b565b9250506040611b3e868287016115be565b9150509250925092565b5f5f5f5f60808587031215611b6057611b5f61153d565b5b5f611b6d8782880161158b565b9450506020611b7e8782880161170e565b9350506040611b8f878288016115be565b9250506060611ba0878288016115be565b91505092959194509250565b5f5f60408385031215611bc257611bc161153d565b5b5f611bcf858286016115be565b9250506020611be08582860161170e565b9150509250929050565b5f60208284031215611bff57611bfe61153d565b5b5f611c0c8482850161158b565b91505092915050565b5f602082019050611c285f83018461167c565b92915050565b5f82825260208201905092915050565b7f43616d706169676e20646f6573206e6f742065786973740000000000000000005f82015250565b5f611c72601783611c2e565b9150611c7d82611c3e565b602082019050919050565b5f6020820190508181035f830152611c9f81611c66565b9050919050565b7f43616d706169676e206e6f7420616374697665000000000000000000000000005f82015250565b5f611cda601383611c2e565b9150611ce582611ca6565b602082019050919050565b5f6020820190508181035f830152611d0781611cce565b9050919050565b7f416c726561647920636c61696d656400000000000000000000000000000000005f82015250565b5f611d42600f83611c2e565b9150611d4d82611d0e565b602082019050919050565b5f6020820190508181035f830152611d6f81611d36565b9050919050565b7f5a65726f20616d6f756e740000000000000000000000000000000000000000005f82015250565b5f611daa600b83611c2e565b9150611db582611d76565b602082019050919050565b5f6020820190508181035f830152611dd781611d9e565b9050919050565b5f819050919050565b611df8611df38261159f565b611dde565b82525050565b5f8160601b9050919050565b5f611e1482611dfe565b9050919050565b5f611e2582611e0a565b9050919050565b611e3d611e3882611564565b611e1b565b82525050565b5f611e4e8286611de7565b602082019150611e5e8285611e2c565b601482019150611e6e8284611de7565b602082019150819050949350505050565b7f496e76616c69642070726f6f66000000000000000000000000000000000000005f82015250565b5f611eb3600d83611c2e565b9150611ebe82611e7f565b602082019050919050565b5f6020820190508181035f830152611ee081611ea7565b9050919050565b7f4e487b71000000000000000000000000000000000000000000000000000000005f52601160045260245ffd5b5f611f1e8261159f565b9150611f298361159f565b9250828201905080821115611f4157611f40611ee7565b5b92915050565b5f611f518261159f565b9150611f5c8361159f565b9250828203905081811115611f7457611f73611ee7565b5b92915050565b7f4e487b71000000000000000000000000000000000000000000000000000000005f52604160045260245ffd5b7f4e487b71000000000000000000000000000000000000000000000000000000005f52603260045260245ffd5b5f611fde8261159f565b91507fffffffffffffffffffffffffffffffffffffffffffffffffffffffffffffffff82036120105761200f611ee7565b5b600182019050919050565b5f60408201905061202e5f830185611662565b61203b6020830184611662565b9392505050565b7f43616d706169676e2061637469766520616e64206e6f742065787069726564005f82015250565b5f612076601f83611c2e565b915061208182612042565b602082019050919050565b5f6020820190508181035f8301526120a38161206a565b9050919050565b7f496e73756666696369656e7420756e636c61696d65642062616c616e636500005f82015250565b5f6120de601e83611c2e565b91506120e9826120aa565b602082019050919050565b5f6020820190508181035f83015261210b816120d2565b9050919050565b7f496e76616c696420746f6b656e206164647265737300000000000000000000005f82015250565b5f612146601583611c2e565b915061215182612112565b602082019050919050565b5f6020820190508181035f8301526121738161213a565b9050919050565b7f5a65726f206d65726b6c6520726f6f74000000000000000000000000000000005f82015250565b5f6121ae601083611c2e565b91506121b98261217a565b602082019050919050565b5f6020820190508181035f8301526121db816121a2565b9050919050565b5f6080820190506121f55f83018761163b565b6122026020830186611653565b61220f6040830185611662565b61221c6060830184611662565b95945050505050565b7f5a65726f20726f6f7400000000000000000000000000000000000000000000005f82015250565b5f612259600983611c2e565b915061226482612225565b602082019050919050565b5f6020820190508181035f8301526122868161224d565b9050919050565b7f4e487b71000000000000000000000000000000000000000000000000000000005f52601260045260245ffd5b5f6122c48261159f565b91506122cf8361159f565b9250826122df576122de61228d565b5b828204905092915050565b5f6122f48261159f565b91506122ff8361159f565b92508261230f5761230e61228d565b5b82820690509291505056fea264697066735822122023cca82f33de6d1da3d408f3aa87b44bb23055d46e75b5ef244eeced83f822d864736f6c634300081e0033",
        "linkReferences": {}
    },
    "methodIdentifiers": {
        "campaigns(uint256)": "141961bc",
        "claim(uint256,uint256,address,uint256,bytes32[])": "5d4df3bf",
        "createAndFundCampaign(address,bytes32,uint256,uint256,uint256)": "307185d4",
        "createCampaign(address,bytes32,uint256,uint256)": "ac2214f6",
        "emergencyRecoverERC20(address,uint256)": "0125bb32",
        "fundCampaign(uint256,uint256)": "918eab15",
        "getAllCampaigns()": "86cdf604",
        "isClaimed(uint256,uint256)": "f364c90c",
        "nextCampaignId()": "7903a756",
        "owner()": "8da5cb5b",
        "renounceOwnership()": "715018a6",
        "transferOwnership(address)": "f2fde38b",
        "updateCampaignStatus(uint256,bool)": "30c56805",
        "updateMerkleRoot(uint256,bytes32)": "f1e33115",
        "withdrawUnclaimed(uint256,address,uint256)": "9ee01a13"
    },
    "id": 36
}