{
    "abi": [
        {
            "type": "constructor",
            "inputs": [],
            "stateMutability": "nonpayable"
        },
        {
            "type": "fallback",
            "stateMutability": "payable"
        },
        {
            "type": "receive",
            "stateMutability": "payable"
        },
        {
            "type": "function",
            "name": "campaigns",
            "inputs": [
                {
                    "name": "",
                    "type": "uint256",
                    "internalType": "uint256"
                }
            ],
            "outputs": [
                {
                    "name": "token",
                    "type": "address",
                    "internalType": "address"
                },
                {
                    "name": "merkleRoot",
                    "type": "bytes32",
                    "internalType": "bytes32"
                },
                {
                    "name": "totalAllocation",
                    "type": "uint256",
                    "internalType": "uint256"
                },
                {
                    "name": "totalFunded",
                    "type": "uint256",
                    "internalType": "uint256"
                },
                {
                    "name": "totalClaimed",
                    "type": "uint256",
                    "internalType": "uint256"
                },
                {
                    "name": "expiry",
                    "type": "uint256",
                    "internalType": "uint256"
                },
                {
                    "name": "active",
                    "type": "bool",
                    "internalType": "bool"
                }
            ],
            "stateMutability": "view"
        },
        {
            "type": "function",
            "name": "claim",
            "inputs": [
                {
                    "name": "campaignId",
                    "type": "uint256",
                    "internalType": "uint256"
                },
                {
                    "name": "index",
                    "type": "uint256",
                    "internalType": "uint256"
                },
                {
                    "name": "account",
                    "type": "address",
                    "internalType": "address"
                },
                {
                    "name": "amount",
                    "type": "uint256",
                    "internalType": "uint256"
                },
                {
                    "name": "merkleProof",
                    "type": "bytes32[]",
                    "internalType": "bytes32[]"
                }
            ],
            "outputs": [],
            "stateMutability": "nonpayable"
        },
        {
            "type": "function",
            "name": "createCampaign",
            "inputs": [
                {
                    "name": "propertyId",
                    "type": "uint256",
                    "internalType": "uint256"
                },
                {
                    "name": "token",
                    "type": "address",
                    "internalType": "address"
                },
                {
                    "name": "merkleRoot",
                    "type": "bytes32",
                    "internalType": "bytes32"
                },
                {
                    "name": "totalAllocation",
                    "type": "uint256",
                    "internalType": "uint256"
                },
                {
                    "name": "expiry",
                    "type": "uint256",
                    "internalType": "uint256"
                },
                {
                    "name": "active",
                    "type": "bool",
                    "internalType": "bool"
                }
            ],
            "outputs": [
                {
                    "name": "",
                    "type": "uint256",
                    "internalType": "uint256"
                }
            ],
            "stateMutability": "nonpayable"
        },
        {
            "type": "function",
            "name": "fundCampaign",
            "inputs": [
                {
                    "name": "campaignId",
                    "type": "uint256",
                    "internalType": "uint256"
                },
                {
                    "name": "amount",
                    "type": "uint256",
                    "internalType": "uint256"
                }
            ],
            "outputs": [],
            "stateMutability": "payable"
        },
        {
            "type": "function",
            "name": "getPropertyCampaigns",
            "inputs": [
                {
                    "name": "propertyId",
                    "type": "uint256",
                    "internalType": "uint256"
                }
            ],
            "outputs": [
                {
                    "name": "",
                    "type": "uint256[]",
                    "internalType": "uint256[]"
                }
            ],
            "stateMutability": "view"
        },
        {
            "type": "function",
            "name": "isClaimed",
            "inputs": [
                {
                    "name": "campaignId",
                    "type": "uint256",
                    "internalType": "uint256"
                },
                {
                    "name": "index",
                    "type": "uint256",
                    "internalType": "uint256"
                }
            ],
            "outputs": [
                {
                    "name": "",
                    "type": "bool",
                    "internalType": "bool"
                }
            ],
            "stateMutability": "view"
        },
        {
            "type": "function",
            "name": "nextCampaignId",
            "inputs": [],
            "outputs": [
                {
                    "name": "",
                    "type": "uint256",
                    "internalType": "uint256"
                }
            ],
            "stateMutability": "view"
        },
        {
            "type": "function",
            "name": "owner",
            "inputs": [],
            "outputs": [
                {
                    "name": "",
                    "type": "address",
                    "internalType": "address"
                }
            ],
            "stateMutability": "view"
        },
        {
            "type": "function",
            "name": "propertyCampaigns",
            "inputs": [
                {
                    "name": "",
                    "type": "uint256",
                    "internalType": "uint256"
                },
                {
                    "name": "",
                    "type": "uint256",
                    "internalType": "uint256"
                }
            ],
            "outputs": [
                {
                    "name": "",
                    "type": "uint256",
                    "internalType": "uint256"
                }
            ],
            "stateMutability": "view"
        },
        {
            "type": "function",
            "name": "renounceOwnership",
            "inputs": [],
            "outputs": [],
            "stateMutability": "nonpayable"
        },
        {
            "type": "function",
            "name": "setCampaignActive",
            "inputs": [
                {
                    "name": "campaignId",
                    "type": "uint256",
                    "internalType": "uint256"
                },
                {
                    "name": "active",
                    "type": "bool",
                    "internalType": "bool"
                }
            ],
            "outputs": [],
            "stateMutability": "nonpayable"
        },
        {
            "type": "function",
            "name": "transferOwnership",
            "inputs": [
                {
                    "name": "newOwner",
                    "type": "address",
                    "internalType": "address"
                }
            ],
            "outputs": [],
            "stateMutability": "nonpayable"
        },
        {
            "type": "function",
            "name": "updateMerkleRoot",
            "inputs": [
                {
                    "name": "campaignId",
                    "type": "uint256",
                    "internalType": "uint256"
                },
                {
                    "name": "newRoot",
                    "type": "bytes32",
                    "internalType": "bytes32"
                }
            ],
            "outputs": [],
            "stateMutability": "nonpayable"
        },
        {
            "type": "function",
            "name": "verifyProof",
            "inputs": [
                {
                    "name": "proof",
                    "type": "bytes32[]",
                    "internalType": "bytes32[]"
                },
                {
                    "name": "root",
                    "type": "bytes32",
                    "internalType": "bytes32"
                },
                {
                    "name": "leaf",
                    "type": "bytes32",
                    "internalType": "bytes32"
                }
            ],
            "outputs": [
                {
                    "name": "",
                    "type": "bool",
                    "internalType": "bool"
                }
            ],
            "stateMutability": "pure"
        },
        {
            "type": "function",
            "name": "withdrawUnclaimed",
            "inputs": [
                {
                    "name": "campaignId",
                    "type": "uint256",
                    "internalType": "uint256"
                },
                {
                    "name": "to",
                    "type": "address",
                    "internalType": "address"
                },
                {
                    "name": "amount",
                    "type": "uint256",
                    "internalType": "uint256"
                }
            ],
            "outputs": [],
            "stateMutability": "nonpayable"
        },
        {
            "type": "event",
            "name": "CampaignClosed",
            "inputs": [
                {
                    "name": "campaignId",
                    "type": "uint256",
                    "indexed": true,
                    "internalType": "uint256"
                }
            ],
            "anonymous": false
        },
        {
            "type": "event",
            "name": "CampaignCreated",
            "inputs": [
                {
                    "name": "propertyId",
                    "type": "uint256",
                    "indexed": true,
                    "internalType": "uint256"
                },
                {
                    "name": "campaignId",
                    "type": "uint256",
                    "indexed": true,
                    "internalType": "uint256"
                },
                {
                    "name": "token",
                    "type": "address",
                    "indexed": false,
                    "internalType": "address"
                },
                {
                    "name": "merkleRoot",
                    "type": "bytes32",
                    "indexed": false,
                    "internalType": "bytes32"
                },
                {
                    "name": "totalAllocation",
                    "type": "uint256",
                    "indexed": false,
                    "internalType": "uint256"
                },
                {
                    "name": "expiry",
                    "type": "uint256",
                    "indexed": false,
                    "internalType": "uint256"
                }
            ],
            "anonymous": false
        },
        {
            "type": "event",
            "name": "CampaignFunded",
            "inputs": [
                {
                    "name": "campaignId",
                    "type": "uint256",
                    "indexed": true,
                    "internalType": "uint256"
                },
                {
                    "name": "token",
                    "type": "address",
                    "indexed": true,
                    "internalType": "address"
                },
                {
                    "name": "amount",
                    "type": "uint256",
                    "indexed": false,
                    "internalType": "uint256"
                },
                {
                    "name": "totalFunded",
                    "type": "uint256",
                    "indexed": false,
                    "internalType": "uint256"
                }
            ],
            "anonymous": false
        },
        {
            "type": "event",
            "name": "Claimed",
            "inputs": [
                {
                    "name": "campaignId",
                    "type": "uint256",
                    "indexed": true,
                    "internalType": "uint256"
                },
                {
                    "name": "index",
                    "type": "uint256",
                    "indexed": true,
                    "internalType": "uint256"
                },
                {
                    "name": "account",
                    "type": "address",
                    "indexed": true,
                    "internalType": "address"
                },
                {
                    "name": "amount",
                    "type": "uint256",
                    "indexed": false,
                    "internalType": "uint256"
                }
            ],
            "anonymous": false
        },
        {
            "type": "event",
            "name": "OwnershipTransferred",
            "inputs": [
                {
                    "name": "previousOwner",
                    "type": "address",
                    "indexed": true,
                    "internalType": "address"
                },
                {
                    "name": "newOwner",
                    "type": "address",
                    "indexed": true,
                    "internalType": "address"
                }
            ],
            "anonymous": false
        },
        {
            "type": "event",
            "name": "UnclaimedWithdrawn",
            "inputs": [
                {
                    "name": "campaignId",
                    "type": "uint256",
                    "indexed": true,
                    "internalType": "uint256"
                },
                {
                    "name": "to",
                    "type": "address",
                    "indexed": true,
                    "internalType": "address"
                },
                {
                    "name": "amount",
                    "type": "uint256",
                    "indexed": false,
                    "internalType": "uint256"
                }
            ],
            "anonymous": false
        },
        {
            "type": "error",
            "name": "OwnableInvalidOwner",
            "inputs": [
                {
                    "name": "owner",
                    "type": "address",
                    "internalType": "address"
                }
            ]
        },
        {
            "type": "error",
            "name": "OwnableUnauthorizedAccount",
            "inputs": [
                {
                    "name": "account",
                    "type": "address",
                    "internalType": "address"
                }
            ]
        },
        {
            "type": "error",
            "name": "ReentrancyGuardReentrantCall",
            "inputs": []
        },
        {
            "type": "error",
            "name": "SafeERC20FailedOperation",
            "inputs": [
                {
                    "name": "token",
                    "type": "address",
                    "internalType": "address"
                }
            ]
        }
    ],
    "bytecode": {
        "object": "0x608060405234801561000f575f5ffd5b50335f73ffffffffffffffffffffffffffffffffffffffff168173ffffffffffffffffffffffffffffffffffffffff1603610081575f6040517f1e4fbdf700000000000000000000000000000000000000000000000000000000815260040161007891906101f4565b60405180910390fd5b610090816100c260201b60201c565b5060016100af6100a461018360201b60201c565b6101ac60201b60201c565b5f0181905550600160038190555061020d565b5f5f5f9054906101000a900473ffffffffffffffffffffffffffffffffffffffff169050815f5f6101000a81548173ffffffffffffffffffffffffffffffffffffffff021916908373ffffffffffffffffffffffffffffffffffffffff1602179055508173ffffffffffffffffffffffffffffffffffffffff168173ffffffffffffffffffffffffffffffffffffffff167f8be0079c531659141344cd1fd0a4f28419497f9722a3daafe3b4186f6b6457e060405160405180910390a35050565b5f7f9b779b17422d0df92223018b32b4d1fa46e071723d6817e2486d003becc55f005f1b905090565b5f819050919050565b5f73ffffffffffffffffffffffffffffffffffffffff82169050919050565b5f6101de826101b5565b9050919050565b6101ee816101d4565b82525050565b5f6020820190506102075f8301846101e5565b92915050565b61228d8061021a5f395ff3fe6080604052600436106100eb575f3560e01c80637903a75611610089578063ad11728b11610058578063ad11728b146102f6578063f1e331151461031e578063f2fde38b14610346578063f364c90c1461036e576100ec565b80637903a7561461025e5780638da5cb5b14610288578063918eab15146102b25780639ee01a13146102ce576100ec565b80634bc935d7116100c55780634bc935d7146101a85780635d4df3bf146101e45780636c3e87e41461020c578063715018a614610248576100ec565b8063066a6ace146100ee578063141961bc1461012a57806326d9846e1461016c576100ec565b5b005b3480156100f9575f5ffd5b50610114600480360381019061010f919061156f565b6103aa565b60405161012191906115bc565b60405180910390f35b348015610135575f5ffd5b50610150600480360381019061014b91906115d5565b6103d5565b6040516101639796959493929190611671565b60405180910390f35b348015610177575f5ffd5b50610192600480360381019061018d91906115d5565b61043e565b60405161019f9190611795565b60405180910390f35b3480156101b3575f5ffd5b506101ce60048036038101906101c99190611840565b6104a5565b6040516101db91906118b1565b60405180910390f35b3480156101ef575f5ffd5b5061020a600480360381019061020591906118f4565b610557565b005b348015610217575f5ffd5b50610232600480360381019061022d91906119b4565b610830565b60405161023f91906115bc565b60405180910390f35b348015610253575f5ffd5b5061025c610a0c565b005b348015610269575f5ffd5b50610272610a1f565b60405161027f91906115bc565b60405180910390f35b348015610293575f5ffd5b5061029c610a25565b6040516102a99190611a3d565b60405180910390f35b6102cc60048036038101906102c7919061156f565b610a4c565b005b3480156102d9575f5ffd5b506102f460048036038101906102ef9190611a56565b610c29565b005b348015610301575f5ffd5b5061031c60048036038101906103179190611aa6565b610e4f565b005b348015610329575f5ffd5b50610344600480360381019061033f9190611ae4565b610f06565b005b348015610351575f5ffd5b5061036c60048036038101906103679190611b22565b610fbc565b005b348015610379575f5ffd5b50610394600480360381019061038f919061156f565b611040565b6040516103a191906118b1565b60405180910390f35b6001602052815f5260405f2081815481106103c3575f80fd5b905f5260205f20015f91509150505481565b6002602052805f5260405f205f91509050805f015f9054906101000a900473ffffffffffffffffffffffffffffffffffffffff1690806001015490806002015490806003015490806004015490806005015490806006015f9054906101000a900460ff16905087565b606060015f8381526020019081526020015f2080548060200260200160405190810160405280929190818152602001828054801561049957602002820191905f5260205f20905b815481526020019060010190808311610485575b50505050509050919050565b5f5f8290505f5f90505b86869050811015610548575f8787838181106104ce576104cd611b4d565b5b90506020020135905080831161050e5782816040516020016104f1929190611b9a565b60405160208183030381529060405280519060200120925061053a565b8083604051602001610521929190611b9a565b6040516020818303038152906040528051906020012092505b5080806001019150506104af565b50838114915050949350505050565b61055f6110a1565b5f60025f8881526020019081526020015f2090505f5f1b8160010154036105bb576040517f08c379a00000000000000000000000000000000000000000000000000000000081526004016105b290611c1f565b60405180910390fd5b806006015f9054906101000a900460ff1661060b576040517f08c379a000000000000000000000000000000000000000000000000000000000815260040161060290611c87565b60405180910390fd5b6106158787611040565b15610655576040517f08c379a000000000000000000000000000000000000000000000000000000000815260040161064c90611cef565b60405180910390fd5b5f8411610697576040517f08c379a000000000000000000000000000000000000000000000000000000000815260040161068e90611d57565b60405180910390fd5b5f8686866040516020016106ad93929190611dda565b60405160208183030381529060405280519060200120905061071e8260010154828686808060200260200160405190810160405280939291908181526020018383602002808284375f81840152601f19601f820116905080830192505050505050506110c39092919063ffffffff16565b61075d576040517f08c379a000000000000000000000000000000000000000000000000000000000815260040161075490611e60565b60405180910390fd5b61076788886110d9565b84826004015f82825461077a9190611eab565b925050819055506107ce8686845f015f9054906101000a900473ffffffffffffffffffffffffffffffffffffffff1673ffffffffffffffffffffffffffffffffffffffff166111329092919063ffffffff16565b8573ffffffffffffffffffffffffffffffffffffffff1687897fb94bf7f9302edf52a596286915a69b4b0685574cffdedd0712e3c62f2550f0ba8860405161081691906115bc565b60405180910390a45050610828611185565b505050505050565b5f61083961119f565b5f5f1b850361087d576040517f08c379a000000000000000000000000000000000000000000000000000000000815260040161087490611f28565b60405180910390fd5b5f60035f81548092919061089090611f46565b9190505590506040518060e001604052808873ffffffffffffffffffffffffffffffffffffffff1681526020018781526020018681526020015f81526020015f815260200185815260200184151581525060025f8381526020019081526020015f205f820151815f015f6101000a81548173ffffffffffffffffffffffffffffffffffffffff021916908373ffffffffffffffffffffffffffffffffffffffff1602179055506020820151816001015560408201518160020155606082015181600301556080820151816004015560a0820151816005015560c0820151816006015f6101000a81548160ff02191690831515021790555090505060015f8981526020019081526020015f2081908060018154018082558091505060019003905f5260205f20015f909190919091505580887f434c348673e155981fff86bcb98acdd1e6fa2f3cc87c4f7980b6203aae21fc29898989896040516109f69493929190611f8d565b60405180910390a3809150509695505050505050565b610a1461119f565b610a1d5f611226565b565b60035481565b5f5f5f9054906101000a900473ffffffffffffffffffffffffffffffffffffffff16905090565b610a5461119f565b610a5c6110a1565b5f60025f8481526020019081526020015f2090505f5f1b816001015403610ab8576040517f08c379a0000000000000000000000000000000000000000000000000000000008152600401610aaf90611c1f565b60405180910390fd5b5f8211610afa576040517f08c379a0000000000000000000000000000000000000000000000000000000008152600401610af190611d57565b60405180910390fd5b5f3414610b3c576040517f08c379a0000000000000000000000000000000000000000000000000000000008152600401610b339061201a565b60405180910390fd5b610b8b333084845f015f9054906101000a900473ffffffffffffffffffffffffffffffffffffffff1673ffffffffffffffffffffffffffffffffffffffff166112e7909392919063ffffffff16565b81816003015f828254610b9e9190611eab565b92505081905550805f015f9054906101000a900473ffffffffffffffffffffffffffffffffffffffff1673ffffffffffffffffffffffffffffffffffffffff16837f6637075408a9572ec77fa40797015b1d3661e89238834c902fc2894c1e38090c848460030154604051610c14929190612038565b60405180910390a350610c25611185565b5050565b610c3161119f565b610c396110a1565b5f60025f8581526020019081526020015f2090505f5f1b816001015403610c95576040517f08c379a0000000000000000000000000000000000000000000000000000000008152600401610c8c90611c1f565b60405180910390fd5b5f8211610cd7576040517f08c379a0000000000000000000000000000000000000000000000000000000008152600401610cce90611d57565b60405180910390fd5b5f816005015403610ce9576001610cf1565b806005015442115b610d30576040517f08c379a0000000000000000000000000000000000000000000000000000000008152600401610d27906120a9565b60405180910390fd5b5f81600401548260030154610d4591906120c7565b905082811015610d8a576040517f08c379a0000000000000000000000000000000000000000000000000000000008152600401610d8190612144565b60405180910390fd5b82826003015f828254610d9d91906120c7565b92505081905550610df18484845f015f9054906101000a900473ffffffffffffffffffffffffffffffffffffffff1673ffffffffffffffffffffffffffffffffffffffff166111329092919063ffffffff16565b8373ffffffffffffffffffffffffffffffffffffffff16857fe714a003ff32e430172ffebb2eed392a83ea6cbb3f999674d48070451e45e98385604051610e3891906115bc565b60405180910390a35050610e4a611185565b505050565b610e5761119f565b5f60025f8481526020019081526020015f2090505f5f1b816001015403610eb3576040517f08c379a0000000000000000000000000000000000000000000000000000000008152600401610eaa90611c1f565b60405180910390fd5b81816006015f6101000a81548160ff02191690831515021790555081610f0157827f5e6eb33a418de5dbbc17f989f7ae362cdfbb1748c5d603137c767027a354edbc60405160405180910390a25b505050565b610f0e61119f565b5f60025f8481526020019081526020015f2090505f5f1b816001015403610f6a576040517f08c379a0000000000000000000000000000000000000000000000000000000008152600401610f6190611c1f565b60405180910390fd5b5f5f1b8203610fae576040517f08c379a0000000000000000000000000000000000000000000000000000000008152600401610fa5906121ac565b60405180910390fd5b818160010181905550505050565b610fc461119f565b5f73ffffffffffffffffffffffffffffffffffffffff168173ffffffffffffffffffffffffffffffffffffffff1603611034575f6040517f1e4fbdf700000000000000000000000000000000000000000000000000000000815260040161102b9190611a3d565b60405180910390fd5b61103d81611226565b50565b5f5f6101008361105091906121f7565b90505f610100846110619190612227565b90505f60045f8781526020019081526020015f205f8481526020019081526020015f205490505f826001901b90505f818316141594505050505092915050565b6110a961133c565b60026110bb6110b661137d565b6113a6565b5f0181905550565b5f826110cf85846113af565b1490509392505050565b5f610100826110e891906121f7565b90505f610100836110f99190612227565b9050806001901b60045f8681526020019081526020015f205f8481526020019081526020015f205f828254179250508190555050505050565b61113f8383836001611400565b61118057826040517f5274afe70000000000000000000000000000000000000000000000000000000081526004016111779190611a3d565b60405180910390fd5b505050565b600161119761119261137d565b6113a6565b5f0181905550565b6111a7611462565b73ffffffffffffffffffffffffffffffffffffffff166111c5610a25565b73ffffffffffffffffffffffffffffffffffffffff1614611224576111e8611462565b6040517f118cdaa700000000000000000000000000000000000000000000000000000000815260040161121b9190611a3d565b60405180910390fd5b565b5f5f5f9054906101000a900473ffffffffffffffffffffffffffffffffffffffff169050815f5f6101000a81548173ffffffffffffffffffffffffffffffffffffffff021916908373ffffffffffffffffffffffffffffffffffffffff1602179055508173ffffffffffffffffffffffffffffffffffffffff168173ffffffffffffffffffffffffffffffffffffffff167f8be0079c531659141344cd1fd0a4f28419497f9722a3daafe3b4186f6b6457e060405160405180910390a35050565b6112f5848484846001611469565b61133657836040517f5274afe700000000000000000000000000000000000000000000000000000000815260040161132d9190611a3d565b60405180910390fd5b50505050565b6113446114da565b1561137b576040517f3ee5aeb500000000000000000000000000000000000000000000000000000000815260040160405180910390fd5b565b5f7f9b779b17422d0df92223018b32b4d1fa46e071723d6817e2486d003becc55f005f1b905090565b5f819050919050565b5f5f8290505f5f90505b84518110156113f5576113e6828683815181106113d9576113d8611b4d565b5b60200260200101516114f6565b915080806001019150506113b9565b508091505092915050565b5f5f63a9059cbb60e01b9050604051815f525f1960601c86166004528460245260205f60445f5f8b5af1925060015f51148316611454578383151615611448573d5f823e3d81fd5b5f873b113d1516831692505b806040525050949350505050565b5f33905090565b5f5f6323b872dd60e01b9050604051815f525f1960601c87166004525f1960601c86166024528460445260205f60645f5f8c5af1925060015f511483166114c75783831516156114bb573d5f823e3d81fd5b5f883b113d1516831692505b806040525f606052505095945050505050565b5f60026114ed6114e861137d565b6113a6565b5f015414905090565b5f81831061150d576115088284611520565b611518565b6115178383611520565b5b905092915050565b5f825f528160205260405f20905092915050565b5f5ffd5b5f5ffd5b5f819050919050565b61154e8161153c565b8114611558575f5ffd5b50565b5f8135905061156981611545565b92915050565b5f5f6040838503121561158557611584611534565b5b5f6115928582860161155b565b92505060206115a38582860161155b565b9150509250929050565b6115b68161153c565b82525050565b5f6020820190506115cf5f8301846115ad565b92915050565b5f602082840312156115ea576115e9611534565b5b5f6115f78482850161155b565b91505092915050565b5f73ffffffffffffffffffffffffffffffffffffffff82169050919050565b5f61162982611600565b9050919050565b6116398161161f565b82525050565b5f819050919050565b6116518161163f565b82525050565b5f8115159050919050565b61166b81611657565b82525050565b5f60e0820190506116845f83018a611630565b6116916020830189611648565b61169e60408301886115ad565b6116ab60608301876115ad565b6116b860808301866115ad565b6116c560a08301856115ad565b6116d260c0830184611662565b98975050505050505050565b5f81519050919050565b5f82825260208201905092915050565b5f819050602082019050919050565b6117108161153c565b82525050565b5f6117218383611707565b60208301905092915050565b5f602082019050919050565b5f611743826116de565b61174d81856116e8565b9350611758836116f8565b805f5b8381101561178857815161176f8882611716565b975061177a8361172d565b92505060018101905061175b565b5085935050505092915050565b5f6020820190508181035f8301526117ad8184611739565b905092915050565b5f5ffd5b5f5ffd5b5f5ffd5b5f5f83601f8401126117d6576117d56117b5565b5b8235905067ffffffffffffffff8111156117f3576117f26117b9565b5b60208301915083602082028301111561180f5761180e6117bd565b5b9250929050565b61181f8161163f565b8114611829575f5ffd5b50565b5f8135905061183a81611816565b92915050565b5f5f5f5f6060858703121561185857611857611534565b5b5f85013567ffffffffffffffff81111561187557611874611538565b5b611881878288016117c1565b945094505060206118948782880161182c565b92505060406118a58782880161182c565b91505092959194509250565b5f6020820190506118c45f830184611662565b92915050565b6118d38161161f565b81146118dd575f5ffd5b50565b5f813590506118ee816118ca565b92915050565b5f5f5f5f5f5f60a0878903121561190e5761190d611534565b5b5f61191b89828a0161155b565b965050602061192c89828a0161155b565b955050604061193d89828a016118e0565b945050606061194e89828a0161155b565b935050608087013567ffffffffffffffff81111561196f5761196e611538565b5b61197b89828a016117c1565b92509250509295509295509295565b61199381611657565b811461199d575f5ffd5b50565b5f813590506119ae8161198a565b92915050565b5f5f5f5f5f5f60c087890312156119ce576119cd611534565b5b5f6119db89828a0161155b565b96505060206119ec89828a016118e0565b95505060406119fd89828a0161182c565b9450506060611a0e89828a0161155b565b9350506080611a1f89828a0161155b565b92505060a0611a3089828a016119a0565b9150509295509295509295565b5f602082019050611a505f830184611630565b92915050565b5f5f5f60608486031215611a6d57611a6c611534565b5b5f611a7a8682870161155b565b9350506020611a8b868287016118e0565b9250506040611a9c8682870161155b565b9150509250925092565b5f5f60408385031215611abc57611abb611534565b5b5f611ac98582860161155b565b9250506020611ada858286016119a0565b9150509250929050565b5f5f60408385031215611afa57611af9611534565b5b5f611b078582860161155b565b9250506020611b188582860161182c565b9150509250929050565b5f60208284031215611b3757611b36611534565b5b5f611b44848285016118e0565b91505092915050565b7f4e487b71000000000000000000000000000000000000000000000000000000005f52603260045260245ffd5b5f819050919050565b611b94611b8f8261163f565b611b7a565b82525050565b5f611ba58285611b83565b602082019150611bb58284611b83565b6020820191508190509392505050565b5f82825260208201905092915050565b7f63616d706169676e206e6f7420657869737473000000000000000000000000005f82015250565b5f611c09601383611bc5565b9150611c1482611bd5565b602082019050919050565b5f6020820190508181035f830152611c3681611bfd565b9050919050565b7f63616d706169676e206e6f7420616374697665000000000000000000000000005f82015250565b5f611c71601383611bc5565b9150611c7c82611c3d565b602082019050919050565b5f6020820190508181035f830152611c9e81611c65565b9050919050565b7f616c726561647920636c61696d656400000000000000000000000000000000005f82015250565b5f611cd9600f83611bc5565b9150611ce482611ca5565b602082019050919050565b5f6020820190508181035f830152611d0681611ccd565b9050919050565b7f7a65726f20616d6f756e740000000000000000000000000000000000000000005f82015250565b5f611d41600b83611bc5565b9150611d4c82611d0d565b602082019050919050565b5f6020820190508181035f830152611d6e81611d35565b9050919050565b5f819050919050565b611d8f611d8a8261153c565b611d75565b82525050565b5f8160601b9050919050565b5f611dab82611d95565b9050919050565b5f611dbc82611da1565b9050919050565b611dd4611dcf8261161f565b611db2565b82525050565b5f611de58286611d7e565b602082019150611df58285611dc3565b601482019150611e058284611d7e565b602082019150819050949350505050565b7f696e76616c69642070726f6f66000000000000000000000000000000000000005f82015250565b5f611e4a600d83611bc5565b9150611e5582611e16565b602082019050919050565b5f6020820190508181035f830152611e7781611e3e565b9050919050565b7f4e487b71000000000000000000000000000000000000000000000000000000005f52601160045260245ffd5b5f611eb58261153c565b9150611ec08361153c565b9250828201905080821115611ed857611ed7611e7e565b5b92915050565b7f7a65726f206d65726b6c6520726f6f74000000000000000000000000000000005f82015250565b5f611f12601083611bc5565b9150611f1d82611ede565b602082019050919050565b5f6020820190508181035f830152611f3f81611f06565b9050919050565b5f611f508261153c565b91507fffffffffffffffffffffffffffffffffffffffffffffffffffffffffffffffff8203611f8257611f81611e7e565b5b600182019050919050565b5f608082019050611fa05f830187611630565b611fad6020830186611648565b611fba60408301856115ad565b611fc760608301846115ad565b95945050505050565b7f646f206e6f742073656e642045544800000000000000000000000000000000005f82015250565b5f612004600f83611bc5565b915061200f82611fd0565b602082019050919050565b5f6020820190508181035f83015261203181611ff8565b9050919050565b5f60408201905061204b5f8301856115ad565b61205860208301846115ad565b9392505050565b7f63616d706169676e206e6f7420657870697265640000000000000000000000005f82015250565b5f612093601483611bc5565b915061209e8261205f565b602082019050919050565b5f6020820190508181035f8301526120c081612087565b9050919050565b5f6120d18261153c565b91506120dc8361153c565b92508282039050818111156120f4576120f3611e7e565b5b92915050565b7f696e73756666696369656e7420756e636c61696d65642062616c616e636500005f82015250565b5f61212e601e83611bc5565b9150612139826120fa565b602082019050919050565b5f6020820190508181035f83015261215b81612122565b9050919050565b7f7a65726f20726f6f7400000000000000000000000000000000000000000000005f82015250565b5f612196600983611bc5565b91506121a182612162565b602082019050919050565b5f6020820190508181035f8301526121c38161218a565b9050919050565b7f4e487b71000000000000000000000000000000000000000000000000000000005f52601260045260245ffd5b5f6122018261153c565b915061220c8361153c565b92508261221c5761221b6121ca565b5b828204905092915050565b5f6122318261153c565b915061223c8361153c565b92508261224c5761224b6121ca565b5b82820690509291505056fea26469706673582212205ed4b92318e53d3f52046e59ad5474016667adec44827760fec5d1da9a05d51064736f6c634300081e0033",
        "linkReferences": {}
    },
    "methodIdentifiers": {
        "campaigns(uint256)": "141961bc",
        "claim(uint256,uint256,address,uint256,bytes32[])": "5d4df3bf",
        "createCampaign(uint256,address,bytes32,uint256,uint256,bool)": "6c3e87e4",
        "fundCampaign(uint256,uint256)": "918eab15",
        "getPropertyCampaigns(uint256)": "26d9846e",
        "isClaimed(uint256,uint256)": "f364c90c",
        "nextCampaignId()": "7903a756",
        "owner()": "8da5cb5b",
        "propertyCampaigns(uint256,uint256)": "066a6ace",
        "renounceOwnership()": "715018a6",
        "setCampaignActive(uint256,bool)": "ad11728b",
        "transferOwnership(address)": "f2fde38b",
        "updateMerkleRoot(uint256,bytes32)": "f1e33115",
        "verifyProof(bytes32[],bytes32,bytes32)": "4bc935d7",
        "withdrawUnclaimed(uint256,address,uint256)": "9ee01a13"
    },
    "id": 37
}